{"contracts/NexusFaucet.sol":{"NexusFaucet":{"abi":[{"inputs":[{"internalType":"address","name":"_token","type":"address"},{"internalType":"address","name":"_owner","type":"address"}],"stateMutability":"nonpayable","type":"constructor"},{"inputs":[{"internalType":"address","name":"owner","type":"address"}],"name":"OwnableInvalidOwner","type":"error"},{"inputs":[{"internalType":"address","name":"account","type":"address"}],"name":"OwnableUnauthorizedAccount","type":"error"},{"inputs":[],"name":"ReentrancyGuardReentrantCall","type":"error"},{"anonymous":false,"inputs":[{"indexed":true,"internalType":"address","name":"user","type":"address"},{"indexed":false,"internalType":"uint256","name":"amount","type":"uint256"}],"name":"Claimed","type":"event"},{"anonymous":false,"inputs":[{"indexed":true,"internalType":"address","name":"previousOwner","type":"address"},{"indexed":true,"internalType":"address","name":"newOwner","type":"address"}],"name":"OwnershipTransferred","type":"event"},{"inputs":[],"name":"claim","outputs":[],"stateMutability":"nonpayable","type":"function"},{"inputs":[],"name":"claimAmount","outputs":[{"internalType":"uint256","name":"","type":"uint256"}],"stateMutability":"view","type":"function"},{"inputs":[],"name":"cooldown","outputs":[{"internalType":"uint256","name":"","type":"uint256"}],"stateMutability":"view","type":"function"},{"inputs":[{"internalType":"address","name":"","type":"address"}],"name":"lastClaim","outputs":[{"internalType":"uint256","name":"","type":"uint256"}],"stateMutability":"view","type":"function"},{"inputs":[],"name":"owner","outputs":[{"internalType":"address","name":"","type":"address"}],"stateMutability":"view","type":"function"},{"inputs":[],"name":"renounceOwnership","outputs":[],"stateMutability":"nonpayable","type":"function"},{"inputs":[{"internalType":"uint256","name":"_amount","type":"uint256"}],"name":"setClaimAmount","outputs":[],"stateMutability":"nonpayable","type":"function"},{"inputs":[{"internalType":"uint256","name":"_cooldown","type":"uint256"}],"name":"setCooldown","outputs":[],"stateMutability":"nonpayable","type":"function"},{"inputs":[],"name":"token","outputs":[{"internalType":"contract IERC20","name":"","type":"address"}],"stateMutability":"view","type":"function"},{"inputs":[{"internalType":"address","name":"newOwner","type":"address"}],"name":"transferOwnership","outputs":[],"stateMutability":"nonpayable","type":"function"},{"inputs":[],"name":"withdrawTokens","outputs":[],"stateMutability":"nonpayable","type":"function"}],"evm":{"bytecode":{"linkReferences":{},"object":"608060405268056bc75e2d631000006002556201518060035534801561002457600080fd5b5060405161084a38038061084a83398101604081905261004391610132565b806001600160a01b03811661007257604051631e4fbdf760e01b81526000600482015260240160405180910390fd5b61007b816100c6565b5060017f9b779b17422d0df92223018b32b4d1fa46e071723d6817e2486d003becc55f005550600180546001600160a01b0319166001600160a01b0392909216919091179055610165565b600080546001600160a01b038381166001600160a01b0319831681178455604051919092169283917f8be0079c531659141344cd1fd0a4f28419497f9722a3daafe3b4186f6b6457e09190a35050565b80516001600160a01b038116811461012d57600080fd5b919050565b6000806040838503121561014557600080fd5b61014e83610116565b915061015c60208401610116565b90509250929050565b6106d6806101746000396000f3fe608060405234801561001057600080fd5b50600436106100a95760003560e01c8063830953ab11610071578063830953ab1461010f5780638d8f2adb146101185780638da5cb5b14610120578063b1c7ef0c14610145578063f2fde38b14610158578063fc0c546a1461016b57600080fd5b80634e71d92d146100ae5780634fc3f41a146100b85780635c16e15e146100cb578063715018a6146100fe578063787a08a614610106575b600080fd5b6100b661017e565b005b6100b66100c63660046105f5565b610398565b6100eb6100d936600461060e565b60046020526000908152604090205481565b6040519081526020015b60405180910390f35b6100b66103a5565b6100eb60035481565b6100eb60025481565b6100b66103b7565b6000546001600160a01b03165b6040516001600160a01b0390911681526020016100f5565b6100b66101533660046105f5565b6104c0565b6100b661016636600461060e565b6104cd565b60015461012d906001600160a01b031681565b610186610508565b600354336000908152600460205260409020546101a3904261063e565b10156101ef5760405162461bcd60e51b815260206004820152601660248201527542656b6c656d652073757265736920646f6c6d61646960501b60448201526064015b60405180910390fd5b6002546001546040516370a0823160e01b81523060048201526001600160a01b03909116906370a0823190602401602060405180830381865afa15801561023a573d6000803e3d6000fd5b505050506040513d601f19601f8201168201806040525081019061025e9190610665565b10156102a55760405162461bcd60e51b8152602060048201526016602482015275466175636574746520746f6b656e206b616c6d61646960501b60448201526064016101e6565b33600081815260046020819052604091829020429055600154600254925163a9059cbb60e01b81529182019390935260248101919091526001600160a01b039091169063a9059cbb906044016020604051808303816000875af1158015610310573d6000803e3d6000fd5b505050506040513d601f19601f82011682018060405250810190610334919061067e565b5060025460405190815233907fd8138f8a3f377c5259ca548e70e4c2de94f129f5a11036a15b69513cba2b426a9060200160405180910390a261039660017f9b779b17422d0df92223018b32b4d1fa46e071723d6817e2486d003becc55f0055565b565b6103a0610536565b600355565b6103ad610536565b6103966000610563565b6103bf610536565b6001546001600160a01b031663a9059cbb6103e26000546001600160a01b031690565b6001546040516370a0823160e01b81523060048201526001600160a01b03909116906370a0823190602401602060405180830381865afa15801561042a573d6000803e3d6000fd5b505050506040513d601f19601f8201168201806040525081019061044e9190610665565b6040516001600160e01b031960e085901b1681526001600160a01b03909216600483015260248201526044016020604051808303816000875af1158015610499573d6000803e3d6000fd5b505050506040513d601f19601f820116820180604052508101906104bd919061067e565b50565b6104c8610536565b600255565b6104d5610536565b6001600160a01b0381166104ff57604051631e4fbdf760e01b8152600060048201526024016101e6565b6104bd81610563565b6105106105b3565b60027f9b779b17422d0df92223018b32b4d1fa46e071723d6817e2486d003becc55f0055565b6000546001600160a01b031633146103965760405163118cdaa760e01b81523360048201526024016101e6565b600080546001600160a01b038381166001600160a01b0319831681178455604051919092169283917f8be0079c531659141344cd1fd0a4f28419497f9722a3daafe3b4186f6b6457e09190a35050565b7f9b779b17422d0df92223018b32b4d1fa46e071723d6817e2486d003becc55f005460020361039657604051633ee5aeb560e01b815260040160405180910390fd5b60006020828403121561060757600080fd5b5035919050565b60006020828403121561062057600080fd5b81356001600160a01b038116811461063757600080fd5b9392505050565b8181038181111561065f57634e487b7160e01b600052601160045260246000fd5b92915050565b60006020828403121561067757600080fd5b5051919050565b60006020828403121561069057600080fd5b8151801515811461063757600080fdfea264697066735822122067d7c5d97485a1593b22549694908dd3374e53e5723e5be15242cbad1e0b801464736f6c634300081b0033","opcodes":"PUSH1 0x80 PUSH1 0x40 MSTORE PUSH9 0x56BC75E2D63100000 PUSH1 0x2 SSTORE PUSH3 0x15180 PUSH1 0x3 SSTORE CALLVALUE DUP1 ISZERO PUSH2 0x24 JUMPI PUSH1 0x0 DUP1 REVERT JUMPDEST POP PUSH1 0x40 MLOAD PUSH2 0x84A CODESIZE SUB DUP1 PUSH2 0x84A DUP4 CODECOPY DUP2 ADD PUSH1 0x40 DUP2 SWAP1 MSTORE PUSH2 0x43 SWAP2 PUSH2 0x132 JUMP JUMPDEST DUP1 PUSH1 0x1 PUSH1 0x1 PUSH1 0xA0 SHL SUB DUP2 AND PUSH2 0x72 JUMPI PUSH1 0x40 MLOAD PUSH4 0x1E4FBDF7 PUSH1 0xE0 SHL DUP2 MSTORE PUSH1 0x0 PUSH1 0x4 DUP3 ADD MSTORE PUSH1 0x24 ADD PUSH1 0x40 MLOAD DUP1 SWAP2 SUB SWAP1 REVERT JUMPDEST PUSH2 0x7B DUP2 PUSH2 0xC6 JUMP JUMPDEST POP PUSH1 0x1 PUSH32 0x9B779B17422D0DF92223018B32B4D1FA46E071723D6817E2486D003BECC55F00 SSTORE POP PUSH1 0x1 DUP1 SLOAD PUSH1 0x1 PUSH1 0x1 PUSH1 0xA0 SHL SUB NOT AND PUSH1 0x1 PUSH1 0x1 PUSH1 0xA0 SHL SUB SWAP3 SWAP1 SWAP3 AND SWAP2 SWAP1 SWAP2 OR SWAP1 SSTORE PUSH2 0x165 JUMP JUMPDEST PUSH1 0x0 DUP1 SLOAD PUSH1 0x1 PUSH1 0x1 PUSH1 0xA0 SHL SUB DUP4 DUP2 AND PUSH1 0x1 PUSH1 0x1 PUSH1 0xA0 SHL SUB NOT DUP4 AND DUP2 OR DUP5 SSTORE PUSH1 0x40 MLOAD SWAP2 SWAP1 SWAP3 AND SWAP3 DUP4 SWAP2 PUSH32 0x8BE0079C531659141344CD1FD0A4F28419497F9722A3DAAFE3B4186F6B6457E0 SWAP2 SWAP1 LOG3 POP POP JUMP JUMPDEST DUP1 MLOAD PUSH1 0x1 PUSH1 0x1 PUSH1 0xA0 SHL SUB DUP2 AND DUP2 EQ PUSH2 0x12D JUMPI PUSH1 0x0 DUP1 REVERT JUMPDEST SWAP2 SWAP1 POP JUMP JUMPDEST PUSH1 0x0 DUP1 PUSH1 0x40 DUP4 DUP6 SUB SLT ISZERO PUSH2 0x145 JUMPI PUSH1 0x0 DUP1 REVERT JUMPDEST PUSH2 0x14E DUP4 PUSH2 0x116 JUMP JUMPDEST SWAP2 POP PUSH2 0x15C PUSH1 0x20 DUP5 ADD PUSH2 0x116 JUMP JUMPDEST SWAP1 POP SWAP3 POP SWAP3 SWAP1 POP JUMP JUMPDEST PUSH2 0x6D6 DUP1 PUSH2 0x174 PUSH1 0x0 CODECOPY PUSH1 0x0 RETURN INVALID PUSH1 0x80 PUSH1 0x40 MSTORE CALLVALUE DUP1 ISZERO PUSH2 0x10 JUMPI PUSH1 0x0 DUP1 REVERT JUMPDEST POP PUSH1 0x4 CALLDATASIZE LT PUSH2 0xA9 JUMPI PUSH1 0x0 CALLDATALOAD PUSH1 0xE0 SHR DUP1 PUSH4 0x830953AB GT PUSH2 0x71 JUMPI DUP1 PUSH4 0x830953AB EQ PUSH2 0x10F JUMPI DUP1 PUSH4 0x8D8F2ADB EQ PUSH2 0x118 JUMPI DUP1 PUSH4 0x8DA5CB5B EQ PUSH2 0x120 JUMPI DUP1 PUSH4 0xB1C7EF0C EQ PUSH2 0x145 JUMPI DUP1 PUSH4 0xF2FDE38B EQ PUSH2 0x158 JUMPI DUP1 PUSH4 0xFC0C546A EQ PUSH2 0x16B JUMPI PUSH1 0x0 DUP1 REVERT JUMPDEST DUP1 PUSH4 0x4E71D92D EQ PUSH2 0xAE JUMPI DUP1 PUSH4 0x4FC3F41A EQ PUSH2 0xB8 JUMPI DUP1 PUSH4 0x5C16E15E EQ PUSH2 0xCB JUMPI DUP1 PUSH4 0x715018A6 EQ PUSH2 0xFE JUMPI DUP1 PUSH4 0x787A08A6 EQ PUSH2 0x106 JUMPI JUMPDEST PUSH1 0x0 DUP1 REVERT JUMPDEST PUSH2 0xB6 PUSH2 0x17E JUMP JUMPDEST STOP JUMPDEST PUSH2 0xB6 PUSH2 0xC6 CALLDATASIZE PUSH1 0x4 PUSH2 0x5F5 JUMP JUMPDEST PUSH2 0x398 JUMP JUMPDEST PUSH2 0xEB PUSH2 0xD9 CALLDATASIZE PUSH1 0x4 PUSH2 0x60E JUMP JUMPDEST PUSH1 0x4 PUSH1 0x20 MSTORE PUSH1 0x0 SWAP1 DUP2 MSTORE PUSH1 0x40 SWAP1 KECCAK256 SLOAD DUP2 JUMP JUMPDEST PUSH1 0x40 MLOAD SWAP1 DUP2 MSTORE PUSH1 0x20 ADD JUMPDEST PUSH1 0x40 MLOAD DUP1 SWAP2 SUB SWAP1 RETURN JUMPDEST PUSH2 0xB6 PUSH2 0x3A5 JUMP JUMPDEST PUSH2 0xEB PUSH1 0x3 SLOAD DUP2 JUMP JUMPDEST PUSH2 0xEB PUSH1 0x2 SLOAD DUP2 JUMP JUMPDEST PUSH2 0xB6 PUSH2 0x3B7 JUMP JUMPDEST PUSH1 0x0 SLOAD PUSH1 0x1 PUSH1 0x1 PUSH1 0xA0 SHL SUB AND JUMPDEST PUSH1 0x40 MLOAD PUSH1 0x1 PUSH1 0x1 PUSH1 0xA0 SHL SUB SWAP1 SWAP2 AND DUP2 MSTORE PUSH1 0x20 ADD PUSH2 0xF5 JUMP JUMPDEST PUSH2 0xB6 PUSH2 0x153 CALLDATASIZE PUSH1 0x4 PUSH2 0x5F5 JUMP JUMPDEST PUSH2 0x4C0 JUMP JUMPDEST PUSH2 0xB6 PUSH2 0x166 CALLDATASIZE PUSH1 0x4 PUSH2 0x60E JUMP JUMPDEST PUSH2 0x4CD JUMP JUMPDEST PUSH1 0x1 SLOAD PUSH2 0x12D SWAP1 PUSH1 0x1 PUSH1 0x1 PUSH1 0xA0 SHL SUB AND DUP2 JUMP JUMPDEST PUSH2 0x186 PUSH2 0x508 JUMP JUMPDEST PUSH1 0x3 SLOAD CALLER PUSH1 0x0 SWAP1 DUP2 MSTORE PUSH1 0x4 PUSH1 0x20 MSTORE PUSH1 0x40 SWAP1 KECCAK256 SLOAD PUSH2 0x1A3 SWAP1 TIMESTAMP PUSH2 0x63E JUMP JUMPDEST LT ISZERO PUSH2 0x1EF JUMPI PUSH1 0x40 MLOAD PUSH3 0x461BCD PUSH1 0xE5 SHL DUP2 MSTORE PUSH1 0x20 PUSH1 0x4 DUP3 ADD MSTORE PUSH1 0x16 PUSH1 0x24 DUP3 ADD MSTORE PUSH22 0x42656B6C656D652073757265736920646F6C6D616469 PUSH1 0x50 SHL PUSH1 0x44 DUP3 ADD MSTORE PUSH1 0x64 ADD JUMPDEST PUSH1 0x40 MLOAD DUP1 SWAP2 SUB SWAP1 REVERT JUMPDEST PUSH1 0x2 SLOAD PUSH1 0x1 SLOAD PUSH1 0x40 MLOAD PUSH4 0x70A08231 PUSH1 0xE0 SHL DUP2 MSTORE ADDRESS PUSH1 0x4 DUP3 ADD MSTORE PUSH1 0x1 PUSH1 0x1 PUSH1 0xA0 SHL SUB SWAP1 SWAP2 AND SWAP1 PUSH4 0x70A08231 SWAP1 PUSH1 0x24 ADD PUSH1 0x20 PUSH1 0x40 MLOAD DUP1 DUP4 SUB DUP2 DUP7 GAS STATICCALL ISZERO DUP1 ISZERO PUSH2 0x23A JUMPI RETURNDATASIZE PUSH1 0x0 DUP1 RETURNDATACOPY RETURNDATASIZE PUSH1 0x0 REVERT JUMPDEST POP POP POP POP PUSH1 0x40 MLOAD RETURNDATASIZE PUSH1 0x1F NOT PUSH1 0x1F DUP3 ADD AND DUP3 ADD DUP1 PUSH1 0x40 MSTORE POP DUP2 ADD SWAP1 PUSH2 0x25E SWAP2 SWAP1 PUSH2 0x665 JUMP JUMPDEST LT ISZERO PUSH2 0x2A5 JUMPI PUSH1 0x40 MLOAD PUSH3 0x461BCD PUSH1 0xE5 SHL DUP2 MSTORE PUSH1 0x20 PUSH1 0x4 DUP3 ADD MSTORE PUSH1 0x16 PUSH1 0x24 DUP3 ADD MSTORE PUSH22 0x466175636574746520746F6B656E206B616C6D616469 PUSH1 0x50 SHL PUSH1 0x44 DUP3 ADD MSTORE PUSH1 0x64 ADD PUSH2 0x1E6 JUMP JUMPDEST CALLER PUSH1 0x0 DUP2 DUP2 MSTORE PUSH1 0x4 PUSH1 0x20 DUP2 SWAP1 MSTORE PUSH1 0x40 SWAP2 DUP3 SWAP1 KECCAK256 TIMESTAMP SWAP1 SSTORE PUSH1 0x1 SLOAD PUSH1 0x2 SLOAD SWAP3 MLOAD PUSH4 0xA9059CBB PUSH1 0xE0 SHL DUP2 MSTORE SWAP2 DUP3 ADD SWAP4 SWAP1 SWAP4 MSTORE PUSH1 0x24 DUP2 ADD SWAP2 SWAP1 SWAP2 MSTORE PUSH1 0x1 PUSH1 0x1 PUSH1 0xA0 SHL SUB SWAP1 SWAP2 AND SWAP1 PUSH4 0xA9059CBB SWAP1 PUSH1 0x44 ADD PUSH1 0x20 PUSH1 0x40 MLOAD DUP1 DUP4 SUB DUP2 PUSH1 0x0 DUP8 GAS CALL ISZERO DUP1 ISZERO PUSH2 0x310 JUMPI RETURNDATASIZE PUSH1 0x0 DUP1 RETURNDATACOPY RETURNDATASIZE PUSH1 0x0 REVERT JUMPDEST POP POP POP POP PUSH1 0x40 MLOAD RETURNDATASIZE PUSH1 0x1F NOT PUSH1 0x1F DUP3 ADD AND DUP3 ADD DUP1 PUSH1 0x40 MSTORE POP DUP2 ADD SWAP1 PUSH2 0x334 SWAP2 SWAP1 PUSH2 0x67E JUMP JUMPDEST POP PUSH1 0x2 SLOAD PUSH1 0x40 MLOAD SWAP1 DUP2 MSTORE CALLER SWAP1 PUSH32 0xD8138F8A3F377C5259CA548E70E4C2DE94F129F5A11036A15B69513CBA2B426A SWAP1 PUSH1 0x20 ADD PUSH1 0x40 MLOAD DUP1 SWAP2 SUB SWAP1 LOG2 PUSH2 0x396 PUSH1 0x1 PUSH32 0x9B779B17422D0DF92223018B32B4D1FA46E071723D6817E2486D003BECC55F00 SSTORE JUMP JUMPDEST JUMP JUMPDEST PUSH2 0x3A0 PUSH2 0x536 JUMP JUMPDEST PUSH1 0x3 SSTORE JUMP JUMPDEST PUSH2 0x3AD PUSH2 0x536 JUMP JUMPDEST PUSH2 0x396 PUSH1 0x0 PUSH2 0x563 JUMP JUMPDEST PUSH2 0x3BF PUSH2 0x536 JUMP JUMPDEST PUSH1 0x1 SLOAD PUSH1 0x1 PUSH1 0x1 PUSH1 0xA0 SHL SUB AND PUSH4 0xA9059CBB PUSH2 0x3E2 PUSH1 0x0 SLOAD PUSH1 0x1 PUSH1 0x1 PUSH1 0xA0 SHL SUB AND SWAP1 JUMP JUMPDEST PUSH1 0x1 SLOAD PUSH1 0x40 MLOAD PUSH4 0x70A08231 PUSH1 0xE0 SHL DUP2 MSTORE ADDRESS PUSH1 0x4 DUP3 ADD MSTORE PUSH1 0x1 PUSH1 0x1 PUSH1 0xA0 SHL SUB SWAP1 SWAP2 AND SWAP1 PUSH4 0x70A08231 SWAP1 PUSH1 0x24 ADD PUSH1 0x20 PUSH1 0x40 MLOAD DUP1 DUP4 SUB DUP2 DUP7 GAS STATICCALL ISZERO DUP1 ISZERO PUSH2 0x42A JUMPI RETURNDATASIZE PUSH1 0x0 DUP1 RETURNDATACOPY RETURNDATASIZE PUSH1 0x0 REVERT JUMPDEST POP POP POP POP PUSH1 0x40 MLOAD RETURNDATASIZE PUSH1 0x1F NOT PUSH1 0x1F DUP3 ADD AND DUP3 ADD DUP1 PUSH1 0x40 MSTORE POP DUP2 ADD SWAP1 PUSH2 0x44E SWAP2 SWAP1 PUSH2 0x665 JUMP JUMPDEST PUSH1 0x40 MLOAD PUSH1 0x1 PUSH1 0x1 PUSH1 0xE0 SHL SUB NOT PUSH1 0xE0 DUP6 SWAP1 SHL AND DUP2 MSTORE PUSH1 0x1 PUSH1 0x1 PUSH1 0xA0 SHL SUB SWAP1 SWAP3 AND PUSH1 0x4 DUP4 ADD MSTORE PUSH1 0x24 DUP3 ADD MSTORE PUSH1 0x44 ADD PUSH1 0x20 PUSH1 0x40 MLOAD DUP1 DUP4 SUB DUP2 PUSH1 0x0 DUP8 GAS CALL ISZERO DUP1 ISZERO PUSH2 0x499 JUMPI RETURNDATASIZE PUSH1 0x0 DUP1 RETURNDATACOPY RETURNDATASIZE PUSH1 0x0 REVERT JUMPDEST POP POP POP POP PUSH1 0x40 MLOAD RETURNDATASIZE PUSH1 0x1F NOT PUSH1 0x1F DUP3 ADD AND DUP3 ADD DUP1 PUSH1 0x40 MSTORE POP DUP2 ADD SWAP1 PUSH2 0x4BD SWAP2 SWAP1 PUSH2 0x67E JUMP JUMPDEST POP JUMP JUMPDEST PUSH2 0x4C8 PUSH2 0x536 JUMP JUMPDEST PUSH1 0x2 SSTORE JUMP JUMPDEST PUSH2 0x4D5 PUSH2 0x536 JUMP JUMPDEST PUSH1 0x1 PUSH1 0x1 PUSH1 0xA0 SHL SUB DUP2 AND PUSH2 0x4FF JUMPI PUSH1 0x40 MLOAD PUSH4 0x1E4FBDF7 PUSH1 0xE0 SHL DUP2 MSTORE PUSH1 0x0 PUSH1 0x4 DUP3 ADD MSTORE PUSH1 0x24 ADD PUSH2 0x1E6 JUMP JUMPDEST PUSH2 0x4BD DUP2 PUSH2 0x563 JUMP JUMPDEST PUSH2 0x510 PUSH2 0x5B3 JUMP JUMPDEST PUSH1 0x2 PUSH32 0x9B779B17422D0DF92223018B32B4D1FA46E071723D6817E2486D003BECC55F00 SSTORE JUMP JUMPDEST PUSH1 0x0 SLOAD PUSH1 0x1 PUSH1 0x1 PUSH1 0xA0 SHL SUB AND CALLER EQ PUSH2 0x396 JUMPI PUSH1 0x40 MLOAD PUSH4 0x118CDAA7 PUSH1 0xE0 SHL DUP2 MSTORE CALLER PUSH1 0x4 DUP3 ADD MSTORE PUSH1 0x24 ADD PUSH2 0x1E6 JUMP JUMPDEST PUSH1 0x0 DUP1 SLOAD PUSH1 0x1 PUSH1 0x1 PUSH1 0xA0 SHL SUB DUP4 DUP2 AND PUSH1 0x1 PUSH1 0x1 PUSH1 0xA0 SHL SUB NOT DUP4 AND DUP2 OR DUP5 SSTORE PUSH1 0x40 MLOAD SWAP2 SWAP1 SWAP3 AND SWAP3 DUP4 SWAP2 PUSH32 0x8BE0079C531659141344CD1FD0A4F28419497F9722A3DAAFE3B4186F6B6457E0 SWAP2 SWAP1 LOG3 POP POP JUMP JUMPDEST PUSH32 0x9B779B17422D0DF92223018B32B4D1FA46E071723D6817E2486D003BECC55F00 SLOAD PUSH1 0x2 SUB PUSH2 0x396 JUMPI PUSH1 0x40 MLOAD PUSH4 0x3EE5AEB5 PUSH1 0xE0 SHL DUP2 MSTORE PUSH1 0x4 ADD PUSH1 0x40 MLOAD DUP1 SWAP2 SUB SWAP1 REVERT JUMPDEST PUSH1 0x0 PUSH1 0x20 DUP3 DUP5 SUB SLT ISZERO PUSH2 0x607 JUMPI PUSH1 0x0 DUP1 REVERT JUMPDEST POP CALLDATALOAD SWAP2 SWAP1 POP JUMP JUMPDEST PUSH1 0x0 PUSH1 0x20 DUP3 DUP5 SUB SLT ISZERO PUSH2 0x620 JUMPI PUSH1 0x0 DUP1 REVERT JUMPDEST DUP2 CALLDATALOAD PUSH1 0x1 PUSH1 0x1 PUSH1 0xA0 SHL SUB DUP2 AND DUP2 EQ PUSH2 0x637 JUMPI PUSH1 0x0 DUP1 REVERT JUMPDEST SWAP4 SWAP3 POP POP POP JUMP JUMPDEST DUP2 DUP2 SUB DUP2 DUP2 GT ISZERO PUSH2 0x65F JUMPI PUSH4 0x4E487B71 PUSH1 0xE0 SHL PUSH1 0x0 MSTORE PUSH1 0x11 PUSH1 0x4 MSTORE PUSH1 0x24 PUSH1 0x0 REVERT JUMPDEST SWAP3 SWAP2 POP POP JUMP JUMPDEST PUSH1 0x0 PUSH1 0x20 DUP3 DUP5 SUB SLT ISZERO PUSH2 0x677 JUMPI PUSH1 0x0 DUP1 REVERT JUMPDEST POP MLOAD SWAP2 SWAP1 POP JUMP JUMPDEST PUSH1 0x0 PUSH1 0x20 DUP3 DUP5 SUB SLT ISZERO PUSH2 0x690 JUMPI PUSH1 0x0 DUP1 REVERT JUMPDEST DUP2 MLOAD DUP1 ISZERO ISZERO DUP2 EQ PUSH2 0x637 JUMPI PUSH1 0x0 DUP1 REVERT INVALID LOG2 PUSH5 0x6970667358 0x22 SLT KECCAK256 PUSH8 0xD7C5D97485A1593B 0x22 SLOAD SWAP7 SWAP5 SWAP1 DUP14 0xD3 CALLDATACOPY 0x4E MSTORE8 0xE5 PUSH19 0x3E5BE15242CBAD1E0B801464736F6C63430008 SHL STOP CALLER "},"methodIdentifiers":{"claim()":"4e71d92d","claimAmount()":"830953ab","cooldown()":"787a08a6","lastClaim(address)":"5c16e15e","owner()":"8da5cb5b","renounceOwnership()":"715018a6","setClaimAmount(uint256)":"b1c7ef0c","setCooldown(uint256)":"4fc3f41a","token()":"fc0c546a","transferOwnership(address)":"f2fde38b","withdrawTokens()":"8d8f2adb"}}}}}