{
  "_format": "hh-sol-artifact-1",
  "contractName": "NexusFaucet",
  "sourceName": "contracts/NexusFaucet.sol",
  "abi": [
    {
      "inputs": [
        {
          "internalType": "address",
          "name": "_token",
          "type": "address"
        },
        {
          "internalType": "address",
          "name": "_owner",
          "type": "address"
        }
      ],
      "stateMutability": "nonpayable",
      "type": "constructor"
    },
    {
      "inputs": [
        {
          "internalType": "address",
          "name": "owner",
          "type": "address"
        }
      ],
      "name": "OwnableInvalidOwner",
      "type": "error"
    },
    {
      "inputs": [
        {
          "internalType": "address",
          "name": "account",
          "type": "address"
        }
      ],
      "name": "OwnableUnauthorizedAccount",
      "type": "error"
    },
    {
      "inputs": [],
      "name": "ReentrancyGuardReentrantCall",
      "type": "error"
    },
    {
      "anonymous": false,
      "inputs": [
        {
          "indexed": true,
          "internalType": "address",
          "name": "user",
          "type": "address"
        },
        {
          "indexed": false,
          "internalType": "uint256",
          "name": "amount",
          "type": "uint256"
        }
      ],
      "name": "Claimed",
      "type": "event"
    },
    {
      "anonymous": false,
      "inputs": [
        {
          "indexed": true,
          "internalType": "address",
          "name": "previousOwner",
          "type": "address"
        },
        {
          "indexed": true,
          "internalType": "address",
          "name": "newOwner",
          "type": "address"
        }
      ],
      "name": "OwnershipTransferred",
      "type": "event"
    },
    {
      "inputs": [],
      "name": "claim",
      "outputs": [],
      "stateMutability": "nonpayable",
      "type": "function"
    },
    {
      "inputs": [],
      "name": "claimAmount",
      "outputs": [
        {
          "internalType": "uint256",
          "name": "",
          "type": "uint256"
        }
      ],
      "stateMutability": "view",
      "type": "function"
    },
    {
      "inputs": [],
      "name": "cooldown",
      "outputs": [
        {
          "internalType": "uint256",
          "name": "",
          "type": "uint256"
        }
      ],
      "stateMutability": "view",
      "type": "function"
    },
    {
      "inputs": [
        {
          "internalType": "address",
          "name": "",
          "type": "address"
        }
      ],
      "name": "lastClaim",
      "outputs": [
        {
          "internalType": "uint256",
          "name": "",
          "type": "uint256"
        }
      ],
      "stateMutability": "view",
      "type": "function"
    },
    {
      "inputs": [],
      "name": "owner",
      "outputs": [
        {
          "internalType": "address",
          "name": "",
          "type": "address"
        }
      ],
      "stateMutability": "view",
      "type": "function"
    },
    {
      "inputs": [],
      "name": "renounceOwnership",
      "outputs": [],
      "stateMutability": "nonpayable",
      "type": "function"
    },
    {
      "inputs": [
        {
          "internalType": "uint256",
          "name": "_amount",
          "type": "uint256"
        }
      ],
      "name": "setClaimAmount",
      "outputs": [],
      "stateMutability": "nonpayable",
      "type": "function"
    },
    {
      "inputs": [
        {
          "internalType": "uint256",
          "name": "_cooldown",
          "type": "uint256"
        }
      ],
      "name": "setCooldown",
      "outputs": [],
      "stateMutability": "nonpayable",
      "type": "function"
    },
    {
      "inputs": [],
      "name": "token",
      "outputs": [
        {
          "internalType": "contract IERC20",
          "name": "",
          "type": "address"
        }
      ],
      "stateMutability": "view",
      "type": "function"
    },
    {
      "inputs": [
        {
          "internalType": "address",
          "name": "newOwner",
          "type": "address"
        }
      ],
      "name": "transferOwnership",
      "outputs": [],
      "stateMutability": "nonpayable",
      "type": "function"
    },
    {
      "inputs": [],
      "name": "withdrawTokens",
      "outputs": [],
      "stateMutability": "nonpayable",
      "type": "function"
    }
  ],
  "bytecode": "0x608060405268056bc75e2d631000006002556201518060035534801561002457600080fd5b5060405161084a38038061084a83398101604081905261004391610132565b806001600160a01b03811661007257604051631e4fbdf760e01b81526000600482015260240160405180910390fd5b61007b816100c6565b5060017f9b779b17422d0df92223018b32b4d1fa46e071723d6817e2486d003becc55f005550600180546001600160a01b0319166001600160a01b0392909216919091179055610165565b600080546001600160a01b038381166001600160a01b0319831681178455604051919092169283917f8be0079c531659141344cd1fd0a4f28419497f9722a3daafe3b4186f6b6457e09190a35050565b80516001600160a01b038116811461012d57600080fd5b919050565b6000806040838503121561014557600080fd5b61014e83610116565b915061015c60208401610116565b90509250929050565b6106d6806101746000396000f3fe608060405234801561001057600080fd5b50600436106100a95760003560e01c8063830953ab11610071578063830953ab1461010f5780638d8f2adb146101185780638da5cb5b14610120578063b1c7ef0c14610145578063f2fde38b14610158578063fc0c546a1461016b57600080fd5b80634e71d92d146100ae5780634fc3f41a146100b85780635c16e15e146100cb578063715018a6146100fe578063787a08a614610106575b600080fd5b6100b661017e565b005b6100b66100c63660046105f5565b610398565b6100eb6100d936600461060e565b60046020526000908152604090205481565b6040519081526020015b60405180910390f35b6100b66103a5565b6100eb60035481565b6100eb60025481565b6100b66103b7565b6000546001600160a01b03165b6040516001600160a01b0390911681526020016100f5565b6100b66101533660046105f5565b6104c0565b6100b661016636600461060e565b6104cd565b60015461012d906001600160a01b031681565b610186610508565b600354336000908152600460205260409020546101a3904261063e565b10156101ef5760405162461bcd60e51b815260206004820152601660248201527542656b6c656d652073757265736920646f6c6d61646960501b60448201526064015b60405180910390fd5b6002546001546040516370a0823160e01b81523060048201526001600160a01b03909116906370a0823190602401602060405180830381865afa15801561023a573d6000803e3d6000fd5b505050506040513d601f19601f8201168201806040525081019061025e9190610665565b10156102a55760405162461bcd60e51b8152602060048201526016602482015275466175636574746520746f6b656e206b616c6d61646960501b60448201526064016101e6565b33600081815260046020819052604091829020429055600154600254925163a9059cbb60e01b81529182019390935260248101919091526001600160a01b039091169063a9059cbb906044016020604051808303816000875af1158015610310573d6000803e3d6000fd5b505050506040513d601f19601f82011682018060405250810190610334919061067e565b5060025460405190815233907fd8138f8a3f377c5259ca548e70e4c2de94f129f5a11036a15b69513cba2b426a9060200160405180910390a261039660017f9b779b17422d0df92223018b32b4d1fa46e071723d6817e2486d003becc55f0055565b565b6103a0610536565b600355565b6103ad610536565b6103966000610563565b6103bf610536565b6001546001600160a01b031663a9059cbb6103e26000546001600160a01b031690565b6001546040516370a0823160e01b81523060048201526001600160a01b03909116906370a0823190602401602060405180830381865afa15801561042a573d6000803e3d6000fd5b505050506040513d601f19601f8201168201806040525081019061044e9190610665565b6040516001600160e01b031960e085901b1681526001600160a01b03909216600483015260248201526044016020604051808303816000875af1158015610499573d6000803e3d6000fd5b505050506040513d601f19601f820116820180604052508101906104bd919061067e565b50565b6104c8610536565b600255565b6104d5610536565b6001600160a01b0381166104ff57604051631e4fbdf760e01b8152600060048201526024016101e6565b6104bd81610563565b6105106105b3565b60027f9b779b17422d0df92223018b32b4d1fa46e071723d6817e2486d003becc55f0055565b6000546001600160a01b031633146103965760405163118cdaa760e01b81523360048201526024016101e6565b600080546001600160a01b038381166001600160a01b0319831681178455604051919092169283917f8be0079c531659141344cd1fd0a4f28419497f9722a3daafe3b4186f6b6457e09190a35050565b7f9b779b17422d0df92223018b32b4d1fa46e071723d6817e2486d003becc55f005460020361039657604051633ee5aeb560e01b815260040160405180910390fd5b60006020828403121561060757600080fd5b5035919050565b60006020828403121561062057600080fd5b81356001600160a01b038116811461063757600080fd5b9392505050565b8181038181111561065f57634e487b7160e01b600052601160045260246000fd5b92915050565b60006020828403121561067757600080fd5b5051919050565b60006020828403121561069057600080fd5b8151801515811461063757600080fdfea264697066735822122067d7c5d97485a1593b22549694908dd3374e53e5723e5be15242cbad1e0b801464736f6c634300081b0033",
  "linkReferences": {},
  "deployedLinkReferences": {}
}