{
  "_format": "hh-sol-artifact-1",
  "contractName": "StakingPool",
  "sourceName": "contracts/StakingPool.sol",
  "abi": [
    {
      "inputs": [
        {
          "internalType": "address",
          "name": "_stakingToken",
          "type": "address"
        },
        {
          "internalType": "address",
          "name": "_rewardToken",
          "type": "address"
        },
        {
          "internalType": "address",
          "name": "_owner",
          "type": "address"
        }
      ],
      "stateMutability": "nonpayable",
      "type": "constructor"
    },
    {
      "inputs": [],
      "name": "EnforcedPause",
      "type": "error"
    },
    {
      "inputs": [],
      "name": "ExpectedPause",
      "type": "error"
    },
    {
      "inputs": [
        {
          "internalType": "address",
          "name": "owner",
          "type": "address"
        }
      ],
      "name": "OwnableInvalidOwner",
      "type": "error"
    },
    {
      "inputs": [
        {
          "internalType": "address",
          "name": "account",
          "type": "address"
        }
      ],
      "name": "OwnableUnauthorizedAccount",
      "type": "error"
    },
    {
      "inputs": [],
      "name": "ReentrancyGuardReentrantCall",
      "type": "error"
    },
    {
      "inputs": [
        {
          "internalType": "address",
          "name": "token",
          "type": "address"
        }
      ],
      "name": "SafeERC20FailedOperation",
      "type": "error"
    },
    {
      "anonymous": false,
      "inputs": [
        {
          "indexed": true,
          "internalType": "address",
          "name": "previousOwner",
          "type": "address"
        },
        {
          "indexed": true,
          "internalType": "address",
          "name": "newOwner",
          "type": "address"
        }
      ],
      "name": "OwnershipTransferred",
      "type": "event"
    },
    {
      "anonymous": false,
      "inputs": [
        {
          "indexed": false,
          "internalType": "address",
          "name": "account",
          "type": "address"
        }
      ],
      "name": "Paused",
      "type": "event"
    },
    {
      "anonymous": false,
      "inputs": [
        {
          "indexed": false,
          "internalType": "address",
          "name": "account",
          "type": "address"
        }
      ],
      "name": "Unpaused",
      "type": "event"
    },
    {
      "inputs": [],
      "name": "claimRewards",
      "outputs": [],
      "stateMutability": "nonpayable",
      "type": "function"
    },
    {
      "inputs": [
        {
          "internalType": "address",
          "name": "account",
          "type": "address"
        }
      ],
      "name": "earned",
      "outputs": [
        {
          "internalType": "uint256",
          "name": "",
          "type": "uint256"
        }
      ],
      "stateMutability": "view",
      "type": "function"
    },
    {
      "inputs": [],
      "name": "lastUpdateTime",
      "outputs": [
        {
          "internalType": "uint256",
          "name": "",
          "type": "uint256"
        }
      ],
      "stateMutability": "view",
      "type": "function"
    },
    {
      "inputs": [],
      "name": "owner",
      "outputs": [
        {
          "internalType": "address",
          "name": "",
          "type": "address"
        }
      ],
      "stateMutability": "view",
      "type": "function"
    },
    {
      "inputs": [],
      "name": "pause",
      "outputs": [],
      "stateMutability": "nonpayable",
      "type": "function"
    },
    {
      "inputs": [],
      "name": "paused",
      "outputs": [
        {
          "internalType": "bool",
          "name": "",
          "type": "bool"
        }
      ],
      "stateMutability": "view",
      "type": "function"
    },
    {
      "inputs": [],
      "name": "renounceOwnership",
      "outputs": [],
      "stateMutability": "nonpayable",
      "type": "function"
    },
    {
      "inputs": [],
      "name": "rewardPerToken",
      "outputs": [
        {
          "internalType": "uint256",
          "name": "",
          "type": "uint256"
        }
      ],
      "stateMutability": "view",
      "type": "function"
    },
    {
      "inputs": [],
      "name": "rewardPerTokenStored",
      "outputs": [
        {
          "internalType": "uint256",
          "name": "",
          "type": "uint256"
        }
      ],
      "stateMutability": "view",
      "type": "function"
    },
    {
      "inputs": [],
      "name": "rewardRate",
      "outputs": [
        {
          "internalType": "uint256",
          "name": "",
          "type": "uint256"
        }
      ],
      "stateMutability": "view",
      "type": "function"
    },
    {
      "inputs": [],
      "name": "rewardToken",
      "outputs": [
        {
          "internalType": "contract IERC20",
          "name": "",
          "type": "address"
        }
      ],
      "stateMutability": "view",
      "type": "function"
    },
    {
      "inputs": [
        {
          "internalType": "address",
          "name": "",
          "type": "address"
        }
      ],
      "name": "rewards",
      "outputs": [
        {
          "internalType": "uint256",
          "name": "",
          "type": "uint256"
        }
      ],
      "stateMutability": "view",
      "type": "function"
    },
    {
      "inputs": [
        {
          "internalType": "uint256",
          "name": "_rewardRate",
          "type": "uint256"
        }
      ],
      "name": "setRewardRate",
      "outputs": [],
      "stateMutability": "nonpayable",
      "type": "function"
    },
    {
      "inputs": [
        {
          "internalType": "uint256",
          "name": "amount",
          "type": "uint256"
        }
      ],
      "name": "stake",
      "outputs": [],
      "stateMutability": "nonpayable",
      "type": "function"
    },
    {
      "inputs": [
        {
          "internalType": "address",
          "name": "",
          "type": "address"
        }
      ],
      "name": "stakedBalance",
      "outputs": [
        {
          "internalType": "uint256",
          "name": "",
          "type": "uint256"
        }
      ],
      "stateMutability": "view",
      "type": "function"
    },
    {
      "inputs": [],
      "name": "stakingToken",
      "outputs": [
        {
          "internalType": "contract IERC20",
          "name": "",
          "type": "address"
        }
      ],
      "stateMutability": "view",
      "type": "function"
    },
    {
      "inputs": [],
      "name": "totalStaked",
      "outputs": [
        {
          "internalType": "uint256",
          "name": "",
          "type": "uint256"
        }
      ],
      "stateMutability": "view",
      "type": "function"
    },
    {
      "inputs": [
        {
          "internalType": "address",
          "name": "newOwner",
          "type": "address"
        }
      ],
      "name": "transferOwnership",
      "outputs": [],
      "stateMutability": "nonpayable",
      "type": "function"
    },
    {
      "inputs": [],
      "name": "unpause",
      "outputs": [],
      "stateMutability": "nonpayable",
      "type": "function"
    },
    {
      "inputs": [
        {
          "internalType": "address",
          "name": "",
          "type": "address"
        }
      ],
      "name": "userRewardPerTokenPaid",
      "outputs": [
        {
          "internalType": "uint256",
          "name": "",
          "type": "uint256"
        }
      ],
      "stateMutability": "view",
      "type": "function"
    },
    {
      "inputs": [
        {
          "internalType": "uint256",
          "name": "amount",
          "type": "uint256"
        }
      ],
      "name": "withdraw",
      "outputs": [],
      "stateMutability": "nonpayable",
      "type": "function"
    }
  ],
  "bytecode": "0x608060405234801561001057600080fd5b50604051610d20380380610d2083398101604081905261002f9161012a565b806001600160a01b03811661005e57604051631e4fbdf760e01b81526000600482015260240160405180910390fd5b610067816100be565b5060017f9b779b17422d0df92223018b32b4d1fa46e071723d6817e2486d003becc55f005550600180546001600160a01b039384166001600160a01b0319918216179091556002805492909316911617905561016d565b600080546001600160a01b038381166001600160a01b0319831681178455604051919092169283917f8be0079c531659141344cd1fd0a4f28419497f9722a3daafe3b4186f6b6457e09190a35050565b80516001600160a01b038116811461012557600080fd5b919050565b60008060006060848603121561013f57600080fd5b6101488461010e565b92506101566020850161010e565b91506101646040850161010e565b90509250925092565b610ba48061017c6000396000f3fe608060405234801561001057600080fd5b50600436106101365760003560e01c8063817b1cd2116100b8578063a694fc3a1161007c578063a694fc3a14610274578063c8f33c9114610287578063cd3daf9d14610290578063df136d6514610298578063f2fde38b146102a1578063f7c618c1146102b457600080fd5b8063817b1cd21461021f5780638456cb59146102285780638b876347146102305780638da5cb5b146102505780639e447fc61461026157600080fd5b80635c975abb116100ff5780635c975abb146101a657806360217267146101c3578063715018a6146101e357806372f702f3146101eb5780637b0a47ee1461021657600080fd5b80628cc2621461013b5780630700037d146101615780632e1a7d4d14610181578063372500ab146101965780633f4ba83a1461019e575b600080fd5b61014e610149366004610a90565b6102c7565b6040519081526020015b60405180910390f35b61014e61016f366004610a90565b60086020526000908152604090205481565b61019461018f366004610ac0565b610344565b005b6101946104a6565b61019461055c565b600054600160a01b900460ff166040519015158152602001610158565b61014e6101d1366004610a90565b60066020526000908152604090205481565b61019461056c565b6001546101fe906001600160a01b031681565b6040516001600160a01b039091168152602001610158565b61014e60035481565b61014e60095481565b61019461057e565b61014e61023e366004610a90565b60076020526000908152604090205481565b6000546001600160a01b03166101fe565b61019461026f366004610ac0565b61058e565b610194610282366004610ac0565b6105f1565b61014e60045481565b61014e6106f3565b61014e60055481565b6101946102af366004610a90565b610751565b6002546101fe906001600160a01b031681565b6001600160a01b0381166000908152600860209081526040808320546007909252822054670de0b6b3a7640000906102fd6106f3565b6103079190610aef565b6001600160a01b03851660009081526006602052604090205461032a9190610b02565b6103349190610b19565b61033e9190610b3b565b92915050565b61034c61078c565b336103556106f3565b600555426004556001600160a01b038116156103a057610374816102c7565b6001600160a01b0382166000908152600860209081526040808320939093556005546007909152919020555b600082116103e75760405162461bcd60e51b815260206004820152600f60248201526e26b4b5ba30b910181037b630b6b0bd60891b60448201526064015b60405180910390fd5b336000908152600660205260409020548211156104375760405162461bcd60e51b815260206004820152600e60248201526d596574657273697a207374616b6560901b60448201526064016103de565b3360009081526006602052604081208054849290610456908490610aef565b92505081905550816009600082825461046f9190610aef565b909155505060015461048b906001600160a01b031633846107a8565b506104a36001600080516020610b4f83398151915255565b50565b6104ae61078c565b336104b76106f3565b600555426004556001600160a01b03811615610502576104d6816102c7565b6001600160a01b0382166000908152600860209081526040808320939093556005546007909152919020555b3360009081526008602052604090205480156105415733600081815260086020526040812055600254610541916001600160a01b0390911690836107a8565b505061055a6001600080516020610b4f83398151915255565b565b6105646107e2565b61055a61080f565b6105746107e2565b61055a6000610864565b6105866107e2565b61055a6108b4565b6105966107e2565b60006105a06106f3565b600555426004556001600160a01b038116156105eb576105bf816102c7565b6001600160a01b0382166000908152600860209081526040808320939093556005546007909152919020555b50600355565b6105f961078c565b6106016108f7565b3361060a6106f3565b600555426004556001600160a01b0381161561065557610629816102c7565b6001600160a01b0382166000908152600860209081526040808320939093556005546007909152919020555b6000821161069e5760405162461bcd60e51b815260206004820152601660248201527529ba30b5b29036b4b5ba30b93490181037b630b6b0bd60511b60448201526064016103de565b33600090815260066020526040812080548492906106bd908490610b3b565b9250508190555081600960008282546106d69190610b3b565b909155505060015461048b906001600160a01b0316333085610922565b6000600954600003610706575060055490565b6009546003546004546107199042610aef565b6107239190610b02565b61073590670de0b6b3a7640000610b02565b61073f9190610b19565b60055461074c9190610b3b565b905090565b6107596107e2565b6001600160a01b03811661078357604051631e4fbdf760e01b8152600060048201526024016103de565b6104a381610864565b61079461095e565b6002600080516020610b4f83398151915255565b6107b5838383600161098e565b6107dd57604051635274afe760e01b81526001600160a01b03841660048201526024016103de565b505050565b6000546001600160a01b0316331461055a5760405163118cdaa760e01b81523360048201526024016103de565b6108176109f4565b6000805460ff60a01b191690557f5db9ee0a495bf2e6ff9c91a7834c1ba4fdd244a5e8aa4e537bd38aeae4b073aa335b6040516001600160a01b03909116815260200160405180910390a1565b600080546001600160a01b038381166001600160a01b0319831681178455604051919092169283917f8be0079c531659141344cd1fd0a4f28419497f9722a3daafe3b4186f6b6457e09190a35050565b6108bc6108f7565b6000805460ff60a01b1916600160a01b1790557f62e78cea01bee320cd4e420270b5ea74000d11b0c9f74754ebdbfc544b05a2586108473390565b600054600160a01b900460ff161561055a5760405163d93c066560e01b815260040160405180910390fd5b610930848484846001610a1e565b61095857604051635274afe760e01b81526001600160a01b03851660048201526024016103de565b50505050565b600080516020610b4f8339815191525460020361055a57604051633ee5aeb560e01b815260040160405180910390fd5b60405163a9059cbb60e01b60008181526001600160a01b038616600452602485905291602083604481808b5af1925060016000511483166109e85783831516156109db573d6000823e3d81fd5b6000873b113d1516831692505b60405250949350505050565b600054600160a01b900460ff1661055a57604051638dfc202b60e01b815260040160405180910390fd5b6040516323b872dd60e01b60008181526001600160a01b038781166004528616602452604485905291602083606481808c5af192506001600051148316610a7e578383151615610a71573d6000823e3d81fd5b6000883b113d1516831692505b60405250600060605295945050505050565b600060208284031215610aa257600080fd5b81356001600160a01b0381168114610ab957600080fd5b9392505050565b600060208284031215610ad257600080fd5b5035919050565b634e487b7160e01b600052601160045260246000fd5b8181038181111561033e5761033e610ad9565b808202811582820484141761033e5761033e610ad9565b600082610b3657634e487b7160e01b600052601260045260246000fd5b500490565b8082018082111561033e5761033e610ad956fe9b779b17422d0df92223018b32b4d1fa46e071723d6817e2486d003becc55f00a26469706673582212205768d1a5de3d9ca73e62fb5b9302328b117e58a703dd88d766c69846c8ad3c3664736f6c634300081b0033",
  "linkReferences": {},
  "deployedLinkReferences": {}
}